:100000000C94E4030C940C040C940C040C940C0459
:100010000C940C040C940C040C940C040C940C0420
:100020000C940C040C940C040C940C040C940C0410
:100030000C940C040C940C040C940C040C940C0400
:100040000C94B30D0C940C040C94810D0C945B0D6A
:100050000C940C040C940C040C940C040C940C04E0
:100060000C94FD0D0C940C040000000024002700EB
:100070002A0000000000250028002B0000000000DE
:1000800023002600290004040404040404040202DA
:100090000202020203030303030301020408102007
:1000A0004080010204081020010204081020000012
:1000B0000008000201000003040700000000000027
:1000C000000020FF0101000000000000000000000F
:1000D000005F5F0000000007070007070000147FB3
:1000E0007F1C7F7F140000242A7F7F2A120046662F
:1000F00030180C666200307A4F5D377A4800000095
:1001000000070700000000001C3E634100000000E3
:1001100041633E1C0000082A3E1C1C3E2A080008C1
:10012000083E3E080800000080E060000000000873
:100130000808080808000000006060000000603047
:10014000180C060301003E7F5149457F3E000040E8
:10015000427F7F40400000727B49496F6600002269
:100160006149497F36001814527F7F5010000027E4
:100170006F4949793300003E7F49497B32000003D3
:1001800001717D0F070000367F49497F3600002648
:100190006F49497F3E000000006C6C0000000000C9
:1001A00080EC6C00000000081C3663410000002455
:1001B000242424242400004163361C08000000028B
:1001C0000351590F06003E7F415D5D5F1E00007CBC
:1001D0007E13137E7C00417F7F49497F36001C3EA1
:1001E000634141632200417F7F41633E1C00417FA8
:1001F0007F495D416300417F7F491D0103003C7ED3
:10020000434151737200007F7F08087F7F000041E7
:10021000417F7F414100307040417F3F0100417F7D
:100220007F081C776300417F7F41406070007F7FC3
:100230000E1C0E7F7F007F7F060C187F7F001C3E08
:100240006341633E1C00417F7F49090706003C7EF5
:100250004351336E5C00417F7F09193F66000026E1
:100260006F49497B32000003417F7F410300003F1B
:100270007F40407F3F00001F3F60603F1F007F7F47
:100280003018307F7F0061731E0C1E736100000701
:100290004F78784F0700476371594D67730000002E
:1002A0007F7F414100000103060C18306000000010
:1002B00041417F7F0000080C0603060C0800808087
:1002C000808080808080000002060C08000020747E
:1002D00054543C784000433F7F44447C380000380D
:1002E0007C44446C2800387C44453F7F4000003803
:1002F0007C54545C180000487E7F4903020000983B
:10030000BCA4A4FC7C00417F7F08047C7800000032
:10031000447D7D4000000060E08084FC7D00417FE2
:100320007F10386C44000000417F7F400000787CE3
:100330000C380C7C7800047C780404787800003851
:100340007C44447C380084FCF8A4243C1800183C0D
:1003500024A4F8FC8400447C78440C080000004885
:100360005C545474200000043F7F44642000003C2F
:100370007C40407C7C00001C3C60603C1C003C7C61
:100380006038607C3C00446C3810386C4400009C41
:10039000BCA0A0FC7C00004C64745C4C4400004198
:1003A00041773E0808000000007F7F000000000841
:1003B000083E7741410002030103020101000000F1
:1003C000000000000000000000FFFF0000001818FF
:1003D0001818181818180000001F1F181818000007
:1003E00000F8F8181818181818F8F800000018186D
:1003F000181F1F0000001818181F1F1818180000D9
:1004000000FFFF181818181818F8F81818181818F6
:1004100018FFFF000000181818FFFF181818000830
:100420001C3E0808080000080C3E0C0800000008EC
:1004300008083E1C08000008183E180800000000CC
:100440000000F0F0F0F0F0F0F0F000000000F0F04C
:10045000F0F0F0F0F0F0000000000F0F0F0F0000C0
:100460000000FFFFFFFFF0F0F0F00F0F0F0FF0F0B4
:10047000F0F0FFFFFFFF0F0F0F0F000000000F0F46
:100480000F0FF0F0F0F0FFFFFFFF00000000FFFF94
:10049000FFFFF0F0F0F00F0F0F0F0F0F0F0F0F0F08
:1004A0000F0FFFFFFFFFFFFFFFFF0F0F0F0FFFFFFC
:1004B000FFFFFFFFFFFFC0C0C0C0C0C0C0C0FCFC4A
:1004C000FCFCFCFCFCFC0000000000000000000044
:1004D000007D7D000000387C44FE446C2800487E8E
:1004E0007F4949636200005A3C24243C5A000015AD
:1004F000577E7E57150000000077770000004048C7
:100500007E771D09010000030300000303001C2285
:100510005D5555221C00485D554F5E500000081C7B
:10052000362A1C36220000080808080818000000B7
:100530001010100000001C225D4D55221C00000010
:10054000010101010000000E1B111B0E00000048FC
:10055000487E7E48480000191D1517120000001142
:1005600015151F0A0000000004070300000000F832
:10057000F84040783800020F7F7F017F01000000C3
:10058000001818000000000040406000000000005B
:10059000111F1F100000004E5B515B4E0000223601
:1005A0001C2A361C0800021F0030287C2000021F75
:1005B0000048645448001115150A30287C2000308A
:1005C000784D4570300000787D15147C78000078F7
:1005D0007C14157D780000787C15157C78000078F7
:1005E0007D15157D780000797D14147D79000078E3
:1005F0007E15157E7800787C127F7F496B000C9EFB
:10060000B3E1E1331200447D7D5454544400447CF2
:100610007C5555544400447C7D5555554400447DDB
:100620007D54555544000044457D7C4444000044BD
:10063000447C7D4544000044457D7D4544000045A3
:10064000457C7C454500497F7F49633E1C00007A1C
:100650007911227A7900387C4545447C3800387C11
:100660004444457D3800387C4545457C3800387D1C
:100670004545457D3800387D4544457D3800426616
:100680003C183C6642005C3E735D673E1D01003CC9
:100690007D41407C3C00003C7C40417D3C00003C76
:1006A0007D41417D3C00003D7D40407D3D00000C92
:1006B0005D71705C0C007F7F2222221C00007E7F17
:1006C0004949493E3600207555543C784000207415
:1006D00054553D784000207455553D7840002075B4
:1006E00055553D794000207555543D7940002076A0
:1006F00055553E7840002074547C345458000018FE
:100700003CA4E424280000387D55545C18000038CF
:100710007C54555D180000387D55555D1800003932
:100720007D54545D19000000497B7A4000000000B0
:10073000487A7B41000000004A79794200000002BB
:100740004A78784202000035754B4E7D3100087AB8
:1007500071090A7A71000030794B4A783000003014
:10076000784A4B79300000307A49497A30000032BB
:1007700079494A7A310000327A48487A32000008D2
:10078000086B6B08080080B078685878340400382B
:10079000794342787800003878424379780000380D
:1007A0007A41417A7800003A7A40407A7A0000989B
:1007B000B8A2A3F97800007E242424180000009A2F
:1007C000BAA0A0FA7A00180F11241FBECFEFD4E010
:1007D000DEBFCDBF12E0A0E0B1E0E6EFF3E302C080
:1007E00005900D92A431B107D9F723E0A4E1B2E05E
:1007F00001C01D92A33FB207E1F713E0C4EED3E0BE
:1008000004C02197FE010E94F319C33ED107C9F726
:100810000E946A100C94F9190C94000080E008956D
:100820004F925F926F927F928F929F92AF92BF9200
:10083000CF92DF92EF92FF926B017C0120E030E0DB
:10084000A9010E94021887FD97C081E02091D10381
:100850003091D2032130310509F080E08093F2031A
:10086000812C912C86E9A82E83E4B82E8092B703C0
:100870009092B803A092B903B092BA038DEC9CECAD
:10088000ACE4BDE38093BB039093BC03A093BD0392
:10089000B093BE03C092BF03D092C003E092C103E5
:1008A000F092C2036091E5037091E6038091E70343
:1008B0009091E8030E94A81820E030E04AE754E451
:1008C0000E9407182B013C018092C3039092C4033D
:1008D000A092C503B092C6032DEC3CEC4CE45DE362
:1008E0000E945F194B015C018092C7039092C8037C
:1008F000A092C903B092CA03A3019201C701B60135
:100900000E9407186B017C01C092CB03D092CC03EC
:10091000E092CD03F092CE038091CF039091D0036B
:10092000019751F580E090E0A6E9B3EC8093C30312
:100930009093C403A093C503B093C603A50194018B
:1009400060E070E0CB010E9495176093C70370933D
:10095000C8038093C9039093CA03A701960160E07E
:1009600070E0CB010E9495176093CB037093CC038A
:100970008093CD039093CE03FF90EF90DF90CF90C4
:10098000BF90AF909F908F907F906F905F904F90AF
:1009900008959B01DC011896ED91FC9141E067E11F
:1009A0000994AF92BF92CF92DF92EF92FF920F9392
:1009B0001F93CF93DF936C017B018B01040F151FF5
:1009C000EB015E01AE18BF08C017D10759F069915D
:1009D000D601ED91FC910190F081E02DC6010995C1
:1009E000892B79F7C501DF91CF911F910F91FF906E
:1009F000EF90DF90CF90BF90AF900895FC01538DA2
:100A0000448D252F30E0842F90E0821B930B5417E8
:100A100010F0CF96089501970895FC01918D828D75
:100A2000981761F0A28DAE0FBF2FB11D5D968C910E
:100A3000928D9F5F9F73928F90E008958FEF9FEF4D
:100A40000895FC01918D828D981731F0828DE80F09
:100A5000F11D858D90E008958FEF9FEF0895FC01C3
:100A6000918D228D892F90E0805C9F4F821B910990
:100A70008F739927089581ED92E00E942F0521E060
:100A8000892B09F420E0822F089580E090E0892BE3
:100A900029F00E943B0581110C9400000895FC018F
:100AA000A48DA80FB92FB11DA35ABF4F2C91848DCF
:100AB00090E001968F739927848FA689B7892C932C
:100AC000A089B1898C91837080648C93938D848D7F
:100AD000981306C00288F389E02D80818F7D808382
:100AE0000895EF92FF920F931F93CF93DF93EC0142
:100AF00081E0888F9B8D8C8D98131AC0E889F989C5
:100B0000808185FF15C09FB7F894EE89FF896083C7
:100B1000E889F98980818370806480839FBF81E048
:100B200090E0DF91CF911F910F91FF90EF9008958A
:100B3000F62E0B8D10E00F5F1F4F0F731127E02E65
:100B40008C8D8E110CC00FB607FCFACFE889F9899D
:100B5000808185FFF5CFCE010E944F05F1CFEB8D4F
:100B6000EC0FFD2FF11DE35AFF4FF0829FB7F89471
:100B70000B8FEA89FB8980818062CFCFCF93DF938F
:100B8000EC01888D8823B9F0AA89BB89E889F989A5
:100B90008C9185FD03C0808186FD0DC00FB607FCDA
:100BA000F7CF8C9185FFF2CF808185FFEDCFCE010D
:100BB0000E944F05E9CFDF91CF910895833081F0F6
:100BC00028F4813099F08230A9F008958730A9F097
:100BD0008830C9F08430B1F4809180008F7D03C0EB
:100BE000809180008F7780938000089584B58F77FF
:100BF00084BD089584B58F7DFBCF8091B0008F7741
:100C00008093B00008958091B0008F7DF9CFCF938D
:100C1000DF93282F30E0F901E255FF4F8491F9016D
:100C2000E656FF4FD491F901EA57FF4FC491CC2308
:100C3000A1F081110E94DE05EC2FF0E0EE0FFF1F06
:100C4000E458FF4FA591B491EC91ED2381E090E041
:100C500009F480E0DF91CF91089580E090E0FACF31
:100C60001F93CF93DF93282F30E0F901E255FF4F18
:100C70008491F901E656FF4FD491F901EA57FF4FED
:100C8000C491CC23A9F0162F81110E94DE05EC2F10
:100C9000F0E0EE0FFF1FEE58FF4FA591B4918FB714
:100CA000F894EC91111108C0D095DE23DC938FBF2E
:100CB000DF91CF911F910895DE2BF8CFCF93DF9373
:100CC00090E0FC01E656FF4F24918A579F4FFC01AC
:100CD00084918823C9F090E0880F991FFC01E8599E
:100CE000FF4FA591B491FC01EE58FF4FC591D491EF
:100CF00061110DC09FB7F8948C91209582238C933D
:100D00008881282328839FBFDF91CF910895623087
:100D100051F49FB7F8943C91822F809583238C9354
:100D2000E8812E2BEFCF8FB7F894EC912E2B2C93DC
:100D30008FBFEACF3FB7F8948091A9029091AA02A1
:100D4000A091AB02B091AC0226B5A89B05C02F3F85
:100D500019F00196A11DB11D3FBFBA2FA92F982FE1
:100D60008827BC01CD01620F711D811D911D42E0DC
:100D7000660F771F881F991F4A95D1F708958F92A4
:100D80009F92AF92BF92CF92DF92EF92FF926B0150
:100D90007C010E949A064B015C01C114D104E1045C
:100DA000F104B9F00E949A06681979098A099B0929
:100DB000683E73408105910580F321E0C21AD10895
:100DC000E108F10888EE880E83E0981EA11CB11C92
:100DD000E4CFFF90EF90DF90CF90BF90AF909F90C7
:100DE0008F9008952FB7F8946091A5027091A60294
:100DF0008091A7029091A8022FBF089585ED80935E
:100E0000BC008091BC0084FDFCCF10927E0208954E
:100E100020915A02260F3327331F21323105ECF47B
:100E200020917E02FC0190E080E0243069F082E0B5
:100E30000895A0915A022191AC01465C5D4FA40F28
:100E4000B52FB11D2C930196861798F380915A0205
:100E5000680F60935A0280E0089581E00895089534
:100E60008FEF9FEF08958FEF9FEF089580913902E4
:100E700090E09195819591090895CF93DF93CB01EF
:100E8000EA01642F0E940807CE01DF91CF910895F7
:100E9000CF93DF931F92CDB7DEB7698361E0CE01B8
:100EA00001960E94080781E090E00F90DF91CF91BA
:100EB0000895DC011A96ED91FC9130E020E0099450
:100EC000CF92DF92FF920F931F93CF93DF9300D0C7
:100ED00000D01F92CDB7DEB78C011C8281E08B83DE
:100EE0007A836983D801ED91FC91F1881D82F80124
:100EF000A081B181C480D5809E012F5F3F4F509665
:100F00004C916FE0C801F60109958D818F5F8D834B
:100F10008F1568F30F900F900F900F900F90DF9147
:100F2000CF911F910F91FF90DF90CF900895CF93B5
:100F3000DF93CDB7DEB728970FB6F894DEBF0FBEAC
:100F4000CDBFBE016F5F7F4F28E0FB0111922A9554
:100F5000E9F70E94600728960FB6F894DEBF0FBE2F
:100F6000CDBFDF91CF910895DC011696ED91FC91F4
:100F700030E020E040E069E10994DC011696ED9153
:100F8000FC9130E020E040E068E109949A01DC0146
:100F90001696ED91FC91462F67E10994EF92FF922E
:100FA0000F931F93CF93DF931F92CDB7DEB77C01D2
:100FB0008B01D8016C91673129F150F46531A0F4AF
:100FC0000F90DF91CF911F910F91FF90EF900895B7
:100FD0006A3118F16E3FA1F7F8014181498369E256
:100FE000C7010E9459070BC0F80141814983D7010D
:100FF0001696ED91FC9130E020E0C70109950E5F57
:101000001F4FD7CFF80181818983AE014F5F5F4FBA
:1010100061E0C7010E94C607F2CF0F5F1F4FD701E3
:101020001696ED91FC9130E020E040E0C701099573
:10103000C0CF462FDC011696ED91FC9130E020E008
:1010400066E10994462FDC011696ED91FC9130E0A3
:1010500020E065E10994EF92FF920F931F93CF93E5
:10106000DF93EC01042F79016D3009F446C050F490
:101070006B30C9F1693009F49FC06A3009F465C06A
:1010800080E046C06E3009F452C06F3099F70E947C
:10109000BD07F7011381110F110F110F6C89160F86
:1010A00060E4CE010E942208612F62956F7060613A
:1010B000CE010E942208612F6F70CE010E94190894
:1010C000F7016481606BCE010E941908F70140812D
:1010D00051816281660F660F660FCE010E94C607BE
:1010E0000150A1F72EC063E171E0442311F06EE0DE
:1010F00071E0CE010E94CE070AC0411110C067E026
:1011000071E00E94CE07E881F98182898C8B81E0B1
:10111000DF91CF911F910F91FF90EF90089560E0C4
:1011200071E00E94CE07E881F9818389EFCF0E94A8
:10113000BD0761E8CE010E942208602FCE010E9407
:101140001908CE010E94B407E2CFEA85FB8530E0A2
:1011500020E040E068E2CE010995EE81FF8130E0B9
:1011600020E040E064E1CE01099541E06BE4CE016E
:101170000E945907E881F981448169E2CE010E9409
:10118000590740E06BE4CE010E945907E881F981DC
:10119000448169E2CE010E94590741E06BE4CE012F
:1011A0000E945907E881F981458169E2CE010E94D8
:1011B000590768E171E09DCF8DE491E099838883C0
:1011C0001C8AA5CF41E06DE40C945907DC01ED9138
:1011D000FC9145856DE20C945907CF93DF93EC01A8
:1011E00041E06CE40E945907CE01DF91CF910C944D
:1011F000E608CF93DF93EC01662379F00E94E208C2
:10120000CE010E94E608CE010E94ED0840E06CE4A9
:10121000CE01DF91CF910C94590740E06DE40E941C
:101220005907EECF1F93CF93DF93EC01162F607811
:101230000E94F908612F6074CE010E94F908612FA5
:101240006072CE010E94F908612F6071CE010E9488
:10125000F908612F6870CE010E94F908612F64704F
:10126000CE010E94F908612F6270CE010E94F90838
:10127000612F6170CE010E94F908CE010E94E20840
:10128000CE010E94E608CE010E94ED08CE010E9428
:10129000E208CE010E94E60840E06CE4CE01DF9156
:1012A000CF911F910C945907DC011896ED91FC9198
:1012B00030E020E040E069E10994DC011896ED910E
:1012C000FC9130E020E040E068E10994CF93DF93A7
:1012D0001F92CDB7DEB76983BE016F5F7F4F0E945B
:1012E000C9040F90DF91CF910895EF92FF921F9361
:1012F000CF93DF93EC01162F7A010E945D0960E421
:10130000CE010E946609E885F9859701412F67E1C2
:10131000CE010995CE01DF91CF911F91FF90EF9003
:101320000C945409EF92FF921F93CF93DF93EC013B
:10133000142F7901663181F138F4643109F44BC01E
:10134000653179F080E022C06831C9F150F169312E
:10135000C9F780913802882391F1CE010E94540987
:101360002EC080913802882319F0CE010E945409C2
:10137000CE010E945D0960E0CE010E946609612FE6
:10138000CE010E94660981E080933802DF91CF91FF
:101390001F91FF90EF900895642F0E94660981E0ED
:1013A000F5CF80913802882319F0CE010E945409AC
:1013B000A701193138F4612FCE010E9475091092EE
:1013C0003802EDCF68E1CE010E947509185188E11D
:1013D000E80EF11CEDCF8E898F3F11F488E78E8BDC
:1013E000E885F9859701412F64E1CE01DF91CF9126
:1013F0001F91FF90EF900994CF93DF93EC01A889A0
:10140000B989FD0134913196949131968491139666
:10141000FD01A4916317A8F1961798F1631B770B50
:101420008A9FE02D1124E69FC001E79F900D1124B3
:10143000280F392F311D83E0220F331F8A95E1F7E2
:10144000C9010496DA01245F3F4FE889F989E80F62
:10145000F91FE491ED93019682179307B1F78D89F7
:10146000882361F0FA019A01285F3F4F8191DF01E3
:10147000119780958C932E173F07C1F7DF91CF917D
:101480000895FA01CA0108961192E817F907E1F7E1
:10149000E6CFEF92FF921F93CF93DF93EC01142FCF
:1014A0007901683151F130F46431D1F06731A9F03C
:1014B00080E006C0693109F443C06032C9F781E0B9
:1014C000DF91CF911F91FF90EF900895F701619107
:1014D0007F01CE010E94120911501111F7CFEFCFF9
:1014E00041E06CE40E94590741E06DE4CE010E94A6
:1014F0005907CE010E94E608E2CF8F89882349F080
:10150000CE010E94E208CE010E94E608CE010E94B0
:10151000ED08CE010E94E20840E06DE4CE010E9499
:101520005907CE010E94E60840E06CE4CE010E941B
:10153000590781E08F8B6E89CE010E941209BFCFBF
:1015400040E06DE40E945907CE010E94E608CE01FA
:101550000E94ED08CE010E94E208CE010E94E6083A
:101560001F8AADCF0F931F93CF93DF938C01C62FAC
:10157000642FCC32E8F4CA3208F041C0C83271F1AD
:10158000C93209F442C080E0C034D0F1CF73F80111
:10159000EC0FF11D868D8F3F91F1C031E0F00E947C
:1015A000070621E0892B09F420E0F801218F27C0EC
:1015B000CD3289F140F384EB8C0F823020F7CF736A
:1015C000C00FD12FD11D8E8D411133C061E00E941B
:1015D0005E0660E08E8D0E94300611C0025E1F4FD5
:1015E000D0E0F80181918F018F3F31F061E0D0317F
:1015F00008F062E00E945E06DF5FD63191F781E07D
:10160000DF91CF911F910F91089570E090E080E0FD
:101610000E94BF06F4CF85E090E0433010F082E0F6
:1016200090E0880F991F880F991F05970197F1F790
:10163000E6CF62E00E945E06E2CF2F923F924F9289
:101640005F926F927F928F929F92AF92BF92CF9252
:10165000DF92EF92FF920F931F93CF93DF93CDB75B
:10166000DEB72D970FB6F894DEBF0FBECDBFDC01FD
:101670005496ED91FC915597D996DC90D997CF016E
:1016800003966A3019F5FC018491D80ED996DC9244
:10169000D997D8961C9281E090E02D960FB6F894D9
:1016A000DEBF0FBECDBFDF91CF911F910F91FF9095
:1016B000EF90DF90CF90BF90AF909F908F907F90F2
:1016C0006F905F904F903F902F90089532962490A6
:1016D000D8965C90D8975D0124E0A20EB11CF490DE
:1016E000FC01E490352C3F0CED0C81E0850D3816A3
:1016F00010F4FF24F394C62E8D01612CCE010196C7
:101700004C01462C752C242DA4016C2DC5010E9482
:10171000FC097C86DD8691E09B879A868986D801C4
:101720001896ED91FC919E01275F3F4F41E06FE0DD
:10173000C501099543947394731428F3D3946F0CE3
:10174000DE14F8F2F80180AD820D80AFA4CFCF9205
:10175000DF92EF92FF920F931F93CF93DF936C0171
:10176000EB017B01E40EF51E10E000E0CE15DF0575
:1017700061F06991D601ED91FC910190F081E02D2D
:10178000C6010995080F191FF1CFC801DF91CF914C
:101790001F910F91FF90EF90DF90CF9008950895E3
:1017A00090E080E00895EF92FF921F93CF93DF9334
:1017B00010E0C7E0D0E0EE24E394F12C60E08091EB
:1017C0006E030E9430068FE99FE00197F1F700C099
:1017D000000080916F030E940706892B39F0C70132
:1017E0000C2E01C0880F0A94EAF7182B61E0809153
:1017F0006E030E9430068FE99FE00197F1F700C069
:1018000000002197D8F6812FDF91CF911F91FF9093
:10181000EF900895FB0101900020E9F73197AF01A7
:10182000461B570BDC01ED91FC910280F381E02D0A
:1018300009948F929F92AF92BF92EF92FF920F9373
:101840001F93CF93DF93CDB7DEB7A1970FB6F89470
:10185000DEBF0FBECDBF7C01FA01CB0119A2223041
:1018600008F42AE08E010F5D1F4F822E912CB12CBF
:10187000A12CBF01A50194010E94D119F901CA014F
:101880006A300CF5605DD8016E938D01232B242BFB
:10189000252B79F790E080E0109721F0BD01C7017A
:1018A0000E940A0CA1960FB6F894DEBF0FBECDBF02
:1018B000DF91CF911F910F91FF90EF90BF90AF906C
:1018C0009F908F900895695CDECF2F923F924F9248
:1018D0005F926F927F928F929F92AF92BF92CF92C0
:1018E000DF92EF92FF921F93CF93DF93EC016A0197
:1018F0007B01722EAB019601CB01B6010E94CC197F
:1019000063E971E0811126C046015701E894B7F8F8
:101910002FEF3FEF4FE75FE7C501B4010E94CC19FD
:1019200081110CC02FEF3FEF4FE75FE7C501B40116
:101930000E94021867E971E0181664F02FEF3FEF7C
:101940004FE75FE4C701B6010E945A191816B4F4B4
:101950006BE971E0CE01DF91CF911F91FF90EF9085
:10196000DF90CF90BF90AF909F908F907F906F90BF
:101970005F904F903F902F900C940A0C2FEF3FEF09
:101980004FE75FECC701B6010E94021887FDE0CF68
:1019900020E030E0A901C701B6010E940218312CF5
:1019A000212C87FF0DC0E881F9810190F081E02DA5
:1019B0006DE2CE0109951C01F7FAF094F7F8F09466
:1019C00010E060E070E080E09FE3711641F020E0FD
:1019D00030E040E251E40E9407181F5FF6CFA701F4
:1019E00096010E9496172B013C010E9479184B0129
:1019F0005C012AE0BC01A401CE010E94190C7C010B
:101A0000E20CF31C1123E1F1C501B4010E94A818F6
:101A10009B01AC01C301B2010E9495174B015C010F
:101A2000E881F9810190F081E02D6EE2CE01099507
:101A3000E80EF91E115020F120E030E040E251E4C0
:101A4000C501B4010E945F192B013C010E94791865
:101A50004B01B12CA12C2AE0B501A401CE010E94BA
:101A6000190CE80EF91EC501B4010E94A8189B01CB
:101A7000AC01C301B2010E9495174B015C01DACFA2
:101A8000C701DF91CF911F91FF90EF90DF90CF9032
:101A9000BF90AF909F908F907F906F905F904F908E
:101AA0003F902F9008956115710511F00C940A0C68
:101AB00090E080E008951F920F920FB60F921124CC
:101AC0002F933F934F935F936F937F938F939F9346
:101AD000AF93BF93EF93FF9381ED92E00E944F0588
:101AE000FF91EF91BF91AF919F918F917F916F91F6
:101AF0005F914F913F912F910F900FBE0F901F90CC
:101B000018951F920F920FB60F9211242F938F9357
:101B10009F93EF93FF93E091E102F091E2028081C5
:101B2000E091E702F091E80282FD1BC09081809174
:101B3000EA028F5F8F732091EB02821741F0E091F0
:101B4000EA02F0E0EF52FD4F958F8093EA02FF9199
:101B5000EF919F918F912F910F900FBE0F901F903B
:101B600018958081F4CF1F920F920FB60F92112417
:101B70002F933F938F939F93AF93BF938091A50231
:101B80009091A602A091A702B091A8023091A40260
:101B900023E0230F2D3758F50196A11DB11D209389
:101BA000A4028093A5029093A602A093A702B093EB
:101BB000A8028091A9029091AA02A091AB02B091D3
:101BC000AC020196A11DB11D8093A9029093AA02B7
:101BD000A093AB02B093AC02BF91AF919F918F9154
:101BE0003F912F910F900FBE0F901F90189526E8F0
:101BF000230F0296A11DB11DD2CF1F920F920FB6D7
:101C00000F9211242F933F934F935F936F937F9382
:101C10008F939F93AF93BF93EF93FF938091B900FE
:101C2000887F803609F44AC0F0F5883209F4A5C0EF
:101C300018F5803109F499C0B8F4882309F4F5C087
:101C4000883009F492C0FF91EF91BF91AF919F91BD
:101C50008F917F916F915F914F913F912F910F9055
:101C60000FBE0F901F901895883109F486C08032FE
:101C700051F780937D0214C0803409F49BC040F476
:101C80008033B9F38833F9F680937D0285ECAEC0DA
:101C9000803509F483C0883509F494C0883499F6F6
:101CA0000E94FE06D0CF883909F48AC038F58837FB
:101CB00029F050F4883611F0803729F683E08093BC
:101CC0007E0210927C0255C0883809F479C08039B0
:101CD00019F0803809F0B7CF80917C02803208F08B
:101CE0006FC0E0917C0281E08E0F80937C02809136
:101CF000BB00F0E0E45AFD4F80833BC0803B39F0ED
:101D0000D0F4803A09F477C0883A09F09CCF84E097
:101D100080937E0210925B0210925A02F0E0E0E0A3
:101D2000099580915A0281110FC081E080935A0277
:101D300010923A0209C0803C09F4A8CF883C09F40B
:101D4000A5CF883B09F07FCFE0915B0281E08E0F49
:101D500080935B02F0E0E65CFD4F80818093BB00E6
:101D600090915B0280915A0229C08091A3028093D6
:101D7000BB0085EC8093BC0066CF9091A20280915D
:101D8000A102981758F5E091A20281E08E0F80938E
:101D9000A202F0E0EF57FD4F8081E9CFE091A2026F
:101DA00081E08E0F8093A2028091BB00F0E0EF579C
:101DB000FD4F80839091A2028091A1029817C8F2F2
:101DC00085E8D8CFE091A20281E08E0F8093A20235
:101DD0008091BB00F0E0EF57FD4F8083809180023F
:101DE00081115ECF81E080937F0284EA8093BC0002
:101DF00010927E0228CF85EC8093BC0010927E0268
:101E000080917C02803230F4E0917C02F0E0E45A70
:101E1000FD4F108260917C0270E08CE592E0F0E072
:101E2000E0E0099510927C020ECF10927D0238CF2F
:101E30000F931F93CF931092D4021092D30288EE87
:101E400093E0A0E0B0E08093D5029093D602A093F7
:101E5000D702B093D80289E791E09093D2028093A1
:101E6000D10285EC90E09093DE028093DD0284EC59
:101E700090E09093E0028093DF0280EC90E09093FA
:101E8000E2028093E10281EC90E09093E40280937F
:101E9000E30282EC90E09093E6028093E50286EC08
:101EA00090E09093E8028093E7021092EA02109289
:101EB000EB021092EC021092ED028FEA93E0909305
:101EC000D6038093D50383EB93E09093D403809360
:101ED000D3038BEA93E09093D8038093D7031092B7
:101EE000F1031092E9031092EA031092EB031092AF
:101EF000EC0380E090E0AFE7B3E48093ED039093D0
:101F0000EE03A093EF03B093F00384E690E0A0E02B
:101F1000B0E08093E5039093E603A093E703B093CA
:101F2000E8031092D0031092CF0381E090E09093E9
:101F3000D2038093D1038093F20380E090E0A8EC79
:101F4000B2E48093B7039093B803A093B903B0931E
:101F5000BA034DEC5CEC6CEC7CE34093BB03509318
:101F6000BC036093BD037093BE0340E050E060EAA1
:101F700071E44093BF035093C0036093C103709317
:101F8000C2038093C3039093C403A093C503B0938B
:101F9000C6038BE097EDA3E2BBE38093C703909366
:101FA000C803A093C903B093CA0380E090E0A8E4FB
:101FB000B3E48093CB039093CC03A093CD03B09371
:101FC000CE030E94F2060091E5031091E6032091F2
:101FD000E7033091E803601B710B820B930B609356
:101FE000D9037093DA038093DB039093DC031092A0
:101FF0007403109273031092A9031092AA038BE842
:1020000091E0909372038093710310927603109283
:10201000750310928A0310928D031092810310921F
:10202000820310928303109284038FEF80938B03BB
:1020300080938F03E3E9F3E089EA93E0CFEFC19364
:102040008E179F07E1F78BE298E090937A038093D5
:10205000790382E999E090937C0380937B0389E480
:102060009AE090937E0380937D0382EB9AE09093B5
:10207000800380937F0330E020E040E069E085E763
:1020800093E00E942B0883E180939F0382E1809379
:10209000A003C0939E038DE080936E038AE080933B
:1020A00070038CE080936F0361E08AE00E945E061B
:1020B00061E080916E030E945E0660E080916F0394
:1020C0000E945E0661E080917003CF911F910F9195
:1020D0000C943006CF93DF93CDB7DEB763970FB67E
:1020E000F894DEBF0FBECDBF789484B5826084BD06
:1020F00084B5816084BD85B5826085BD85B581600C
:1021000085BD80916E00816080936E001092810089
:102110008091810082608093810080918100816044
:102120008093810080918000816080938000809105
:10213000B10084608093B1008091B0008160809391
:10214000B00080917A00846080937A0080917A0058
:10215000826080937A0080917A00816080937A0017
:1021600080917A00806880937A001092C1006FE9B4
:1021700071E081ED92E00E940A0C68EA71E081ED65
:1021800092E00E940A0C60E085E00E94300661E067
:1021900085E00E945E0660E086E00E94300661E015
:1021A00086E00E945E0660E08FE00E94300661E0FB
:1021B0008FE00E945E0660E08EE00E94300661E0E3
:1021C0008EE00E945E0660E082E00E945E0660E0B3
:1021D00083E00E945E0661E086E00E943006E091A6
:1021E0007903F0917A0330E020E040E06AE085E78F
:1021F00093E0099585E793E00E949707E0917903C2
:10220000F0917A0330E020E040E06BE085E793E076
:10221000099582EC90E09093860380938503E0918A
:102220007903F0917A0330E020E040E06BE085E74D
:1022300093E0099585E793E00E9497076BEA71E0C8
:1022400081E793E00E94530D1092A90381E08093EF
:10225000AA0362EB71E081E793E00E94530D60E016
:1022600086E00E94300664EC79E080E090E00E9415
:10227000BF0685E793E00E9497071092A90310928A
:10228000AA03E091E102F091E20282E08083E09112
:10229000E102F091E2021082E091DD02F091DE02B3
:1022A0001082E091DF02F091E00280E180831092E1
:1022B000E902E091E502F091E60286E08083E09198
:1022C000E302F091E402808180618083E091E30287
:1022D000F091E402808188608083E091E302F091D4
:1022E000E402808180688083E091E302F091E4025F
:1022F00080818F7D808361E08FE00E94300661E005
:102300008EE00E94300680ED97E09093BC028093AF
:10231000BB020E94F2066093C5027093C6028093CE
:10232000C7029093C8020E94F2066093CD02709398
:10233000CE028093CF029093D00222242394312C9A
:102340000E94F2060091CD021091CE022091CF02A0
:102350003091D002061717072807390708F05EC02A
:10236000D901C80188519C4FAF4FBF4F8093CD0218
:102370009093CE02A093CF02B093D00260E0809100
:1023800070030E9430068FE99FE00197F1F700C0CB
:1023900000000E94D30BA82FB0E0FA2FEE27FA839B
:1023A000E9830E94D30B29813A81282B3A83298320
:1023B00061E0809170030E943006398160E070E036
:1023C00080EC9FE732FD12C049815A8193E0569517
:1023D00047959A95E1F7BA0190E080E00E94A8182D
:1023E00020E030E040E85EE30E945F196093B303B1
:1023F0007093B4038093B5039093B6039B01AC0133
:102400000E94CC19882351F087E090E09093CC0291
:102410008093CB021092CA021092C9020E94F20667
:102420000091C5021091C6022091C7023091C802E6
:10243000061717072807390708F0B6C0D901C801E1
:1024400088519C4FAF4FBF4F8093C5029093C602F7
:10245000A093C702B093C8028091C9029091CA02AA
:10246000019709F0B5C08FE00E94070661E0892B53
:1024700009F060E08FE00E943006C090C302D09067
:10248000C4029FEFC91AD90AD092C402C092C302F3
:102490000D2C000CEE08FF082AE0B701A601F7FE9C
:1024A0000DC06DE281ED92E00E9471054427552731
:1024B000BA014C195D096E097F092AE081ED92E0AD
:1024C0000E94190C66EC71E081ED92E00E94530DC0
:1024D0004091AB035091AC036091AD037091AE039A
:1024E00022E081ED92E00E94650C66EC71E081EDE6
:1024F00092E00E94530D4091B3035091B403609158
:10250000B5037091B60322E081ED92E00E94650C64
:1025100066EC71E081ED92E00E94530D4091AF03B3
:102520005091B0036091B1037091B20322E081ED4C
:1025300092E00E94650C68EA71E081ED92E00E94F1
:102540000A0CE091CB02F091CC02EE0FFF1FEB5989
:10255000FE4F6081718181E793E00E94530D1092DC
:10256000A90381E08093AA038091CB029091CC02D1
:102570006BEB71E00797A1F04091B3035091B40366
:102580006091B5037091B60322E081E793E00E9469
:10259000650C60E081E793E00E941D0B65EC71E043
:1025A00081E793E00E94530DE091CB02F091CC02C1
:1025B000E830F10508F06DC1E052FD4E0C94F319BE
:1025C000ED12081643169916C216F0160D171E17AF
:1025D00061E08FE00E943006B4CF20E030E048E4B4
:1025E00052E46091B3037091B4038091B50390916C
:1025F000B6030E945A19A6E0B0E087FF3FC380915E
:10260000C1029091C202019709F057C168EC71E0D4
:1026100081ED92E00E940A0C68EA71E081ED92E09F
:102620000E940A0C1092C4021092C3020E94F20689
:102630006093BD027093BE028093BF029093C0026C
:1026400080E090E0A6E1B3E48093AB039093AC0309
:10265000A093AD03B093AE036091BB027091BC0236
:10266000072E000C880B990B0E94AA186B017C01A5
:1026700020E030E0A9010E9402181091F103181621
:102680000CF06DC01092E9031092EA031092EB0374
:102690001092EC03C092ED03D092EE03E092EF03B0
:1026A000F092F003112309F45AC0E091D503F091A0
:1026B000D603FA83E98380809180A280B380A5014C
:1026C0009401C701B6010E94021887FF28C0A981A2
:1026D000BA81CD92DD92ED92FC9213978090DD034A
:1026E0009090DE03A090DF03B090E003C090ED0374
:1026F000D090EE03E090EF03F090F003A701960175
:10270000C501B4010E945A191816CCF4C092DD0319
:10271000D092DE03E092DF03F092E00320C020E0DD
:1027200030E0A901C501B4010E94021887FFD6CF8D
:10273000E981FA811082118212821382CFCFC09078
:10274000E903D090EA03E090EB03F090EC03A701DB
:102750009601C501B4010E94021887FDD7CF609190
:10276000E5037091E6038091E7039091E8030E94EE
:10277000A8189B01AC0160E070E08AE794E40E9435
:1027800007186B017C01AC019B016091C70370913C
:10279000C8038091C9039091CA030E945F19609396
:1027A000C7037093C8038093C9039093CA03A7011A
:1027B00096016091CB037091CC038091CD039091F1
:1027C000CE030E9407186093CB037093CC038093D1
:1027D000CD039093CE0328EE33E040E050E0209309
:1027E000E5033093E6034093E7035093E8031111A8
:1027F00049C0E091D503F091D603C080D180E2803A
:10280000F380C092DD03D092DE03E092DF03F0920A
:10281000E003E091D303F091D40380819181A28100
:10282000B3818093E1039093E203A093E303B09319
:10283000E4038090ED039090EE03A090EF03B0903E
:10284000F003A5019401C701B6010E945A19181698
:102850004CF48092DD039092DE03A092DF03B092ED
:10286000E00310C08090E9039090EA03A090EB038E
:10287000B090EC03A5019401C701B6010E940218B3
:1028800087FDE7CF81E08093F1033092CC02209264
:10289000CB028091C1029091C202019771F48091A4
:1028A000C9029091CA02019741F41092CA02109293
:1028B000C9021092CC021092CB028091B102909189
:1028C000B2028130910509F4E1C208F4C6C2029750
:1028D00009F4FCC28091C9029091CA02019709F0E3
:1028E0007BC10E94F20669837A838B839C838091EB
:1028F000F103882309F427C10E94F2066D837E83C9
:102900008F8398878091D9039091DA03A091DB039C
:10291000B091DC034D815E816F817885481B590B36
:102920006A0B7B0B8091E5039091E603A091E7038E
:10293000B091E803481759076A077B0708F403C1F9
:10294000E091D303F091D403408051806280738082
:10295000E091D703F091D803A301920160817181C6
:10296000828193810E9495176B017C012091E10384
:102970003091E2034091E3035091E403C301B201BB
:102980000E94951769877A878B879C872091C70358
:102990003091C8034091C9035091CA03C701B601E1
:1029A0000E945F192091DD033091DE034091DF0327
:1029B0005091E0030E9496174B015C018092DD0369
:1029C0009092DE03A092DF03B092E003F091F20355
:1029D000FD87F1111CC02091C3033091C4034091C5
:1029E000C5035091C60369857A858B859C850E94B5
:1029F0005F199B01AC01C501B4010E94951760935A
:102A0000DD037093DE038093DF039093E003209156
:102A1000DD033091DE034091DF035091E0032E8708
:102A20003F87488B598B0091ED031091EE03309155
:102A3000EF033B8B4091F0034A8B98014B895A89F5
:102A40006E857F85888999890E945A1918160CF01D
:102A50004DC2C801AB89BA898093DD039093DE0330
:102A6000A093DF03B093E0035D85552309F459C2B9
:102A70002091C3033091C4034091C5035091C60314
:102A8000C701B6010E945F196B017C012091CB0345
:102A90003091CC034091CD035091CE0369857A8566
:102AA0008B859C850E945F199B01AC016091DD03C1
:102AB0007091DE038091DF039091E0030E949517EF
:102AC000A70196010E9496176B017C019B01AC0146
:102AD000B8018B899A890E94021887FD15C0009160
:102AE000E9031091EA038091EB038B8B9091EC0347
:102AF0009A8B9801AC01B601C7010E94021887FDAC
:102B000003C08601EB8AFA8AE091D503F091D603DF
:102B1000C801AB89BA8980839183A283B383409231
:102B2000E1035092E2036092E3037092E4032D818B
:102B30003E814F8158852093D9033093DA03409327
:102B4000DB035093DC038091BD029091BE02A09103
:102B5000BF02B091C0024091BB025091BC02052E51
:102B6000000C660B770B09811A812B813C81081BB5
:102B7000190B2A0B3B0B401751076207730760F4D0
:102B8000840F951FA61FB71F8093BD029093BE02AE
:102B9000A093BF02B093C0028091BD029091BE028B
:102BA000A091BF02B091C00229813A814B815C8122
:102BB000281B390B4A0B5B0BCA01B9010E94A818EC
:102BC0002091AF033091B0034091B1035091B20313
:102BD0000E94021861E087FF60E085E00E943006F5
:102BE000E0917903F0917A0330E020E040E060E189
:102BF00085E793E0099540E050E0452B09F4A0CB30
:102C00000E943B05882309F498CB0E94000095CBD5
:102C10003092CA022092C90220E030E046E153E43B
:102C20006091B3037091B4038091B5039091B603A2
:102C30000E945A1987FD2DCE0E94F206605F784DE2
:102C40008F4F9F4F6093B7027093B8028093B90281
:102C50009093BA0260E070E08AE793E40E94100467
:102C600080E090E0ABE1B3E48093AB039093AC03DE
:102C7000A093AD03B093AE03A2E0B0E0B093CC025A
:102C8000A093CB0206CE0E94F2060091B7021091EB
:102C9000B8022091B9023091BA0206171707280727
:102CA000390708F0F6CD0E94F206605F784D8F4F2D
:102CB0009F4F6093B7027093B8028093B9029093CC
:102CC000BA0220E030E040EA50E46091AB0370913A
:102CD000AC038091AD039091AE030E949617609370
:102CE000AB037093AC038093AD039093AE0320E0ED
:102CF00030E044E353E40E945A1918160CF0C9CD91
:102D000060E070E08FEA93E40E94100420E030E07D
:102D100040E653E42093AB033093AC034093AD0300
:102D20005093AE0343E050E05093CC024093CB026B
:102D3000B0CD20E030E04BE553E46091B3037091F7
:102D4000B4038091B5039091B6030E945A1987FD90
:102D5000A0CD60E070E08FEA93E40E94100480E070
:102D600090E0A8ECB2E48093AB039093AC03A09303
:102D7000AD03B093AE0384E090E09093CC028093D7
:102D8000CB0287CD20E030E048EC52E46091B30301
:102D90007091B4038091B5039091B6030E9402181C
:102DA00018160CF476CD0E94F20668517C4F8F4FB6
:102DB0009F4F6093B3027093B4028093B5029093D7
:102DC000B60260E08EE00E94300661E086E00E947C
:102DD00030061092CA021092C902A5E0B0E04ECFB0
:102DE0000E94F2060091B3021091B4022091B50244
:102DF0003091B602061717072807390708F049CDA2
:102E000060E086E00E94300661E08EE00E943006BD
:102E10001092CC021092CB023CCD20E030E048E48E
:102E200052E46091B3037091B4038091B503909123
:102E3000B6030E94021887FF2CCDEACF6091B3033E
:102E40007091B4038091B5039091B6039B01AC01DE
:102E50000E94CC198823E1F21CCD1092C20210927C
:102E6000C10282E00E940706892B09F033CD0E943F
:102E7000F2066093AD027093AE028093AF0290931E
:102E8000B0023092B2022092B10224CD82E00E94C0
:102E90000706892B31F50E94F2060091AD021091D0
:102EA000AE022091AF023091B002601B710B820B19
:102EB000930B633371058105910508F40BCDE2E0B6
:102EC000F0E0F093B202E093B10204CD82E00E9400
:102ED00007068130910509F0FDCC9093C2028093E2
:102EE000C1021092B2021092B102F4CC8090E903B8
:102EF0009090EA03A090EB03B090EC03A50194013D
:102F00006E857F85888999890E94021887FFACCDDC
:102F10008092DD039092DE03A092DF03B092E00383
:102F2000A3CDC12CD12C7601B1CD5058BB27AA27F7
:102F30000E94AD170C9420190E94121938F00E94BB
:102F4000191920F039F49F3F19F426F40C940F1945
:102F50000EF4E095E7FB0C940919E92F0E94311952
:102F600058F3BA17620773078407950720F079F4BE
:102F7000A6F50C9453190EF4E0950B2EBA2FA02D44
:102F80000B01B90190010C01CA01A0011124FF2716
:102F9000591B99F0593F50F4503E68F11A16F04011
:102FA000A22F232F342F4427585FF3CF4695379510
:102FB0002795A795F0405395C9F77EF41F16BA0BD5
:102FC000620B730B840BBAF09150A1F0FF0FBB1F83
:102FD000661F771F881FC2F70EC0BA0F621F731FCC
:102FE000841F48F4879577956795B795F7959E3F29
:102FF00008F0B0CF9395880F08F09927EE0F9795BA
:10300000879508950E94E51808F481E008950E94CC
:103010001B180C9420190E94191958F00E941219BB
:1030200040F029F45F3F29F00C94091951110C94D8
:1030300054190C940F190E94311968F39923B1F3B4
:10304000552391F3951B550BBB27AA2762177307CE
:10305000840738F09F5F5F4F220F331F441FAA1F62
:10306000A9F335D00E2E3AF0E0E832D0915050401E
:10307000E695001CCAF72BD0FE2F29D0660F771FCC
:10308000881FBB1F261737074807AB07B0E809F0B2
:10309000BB0B802DBF01FF2793585F4F3AF09E3F37
:1030A000510578F00C9409190C9454195F3FE4F31E
:1030B000983ED4F3869577956795B795F7959F5F7A
:1030C000C9F7880F911D9695879597F90895E1E0C6
:1030D000660F771F881FBB1F621773078407BA0725
:1030E00020F0621B730B840BBA0BEE1F88F7E09580
:1030F00008950E94391988F09F5798F0B92F9927A1
:10310000B751B0F0E1F0660F771F881F991F1AF0D2
:10311000BA95C9F714C0B13091F00E945319B1E0CB
:1031200008950C945319672F782F8827B85F39F0CA
:10313000B93FCCF3869577956795B395D9F73EF46B
:1031400090958095709561957F4F8F4F9F4F089513
:10315000E89409C097FB3EF4909580957095619531
:103160007F4F8F4F9F4F9923A9F0F92F96E9BB27E7
:103170009395F695879577956795B795F111F8CF63
:10318000FAF4BB0F11F460FF1BC06F5F7F4F8F4FCE
:103190009F4F16C0882311F096E911C0772321F0C4
:1031A0009EE8872F762F05C0662371F096E8862F5C
:1031B00070E060E02AF09A95660F771F881FDAF7B3
:1031C000880F9695879597F90895990F0008550FE0
:1031D000AA0BE0E8FEEF16161706E807F907C0F09D
:1031E00012161306E407F50798F0621B730B840BA5
:1031F000950B39F40A2661F0232B242B252B21F47F
:1032000008950A2609F4A140A6958FEF811D811D1E
:10321000089597F99F6780E870E060E008959FEF58
:1032200080EC089500240A9416161706180609065D
:10323000089500240A94121613061406050608952C
:10324000092E0394000C11F4882352F0BB0F40F4B4
:10325000BF2B11F460FF04C06F5F7F4F8F4F9F4FF4
:10326000089557FD9058440F551F59F05F3F71F076
:103270004795880F97FB991F61F09F3F79F08795DD
:103280000895121613061406551FF2CF4695F1DF66
:1032900008C0161617061806991FF1CF86957105F6
:1032A000610508940895E894BB2766277727CB012A
:1032B00097F908950E94E51808F48FEF08950E9489
:1032C00072190C9420190E94121938F00E941919D1
:1032D00020F0952311F00C9409190C940F19112466
:1032E0000C9454190E94311970F3959FC1F3950FF6
:1032F00050E0551F629FF001729FBB27F00DB11D7A
:10330000639FAA27F00DB11DAA1F649F6627B00D09
:10331000A11D661F829F2227B00DA11D621F739FF2
:10332000B00DA11D621F839FA00D611D221F749F00
:103330003327A00D611D231F849F600D211D822F47
:10334000762F6A2F11249F5750409AF0F1F088236E
:103350004AF0EE0FFF1FBB1F661F771F881F91509B
:103360005040A9F79E3F510580F00C9409190C9428
:1033700054195F3FE4F3983ED4F3869577956795AB
:10338000B795F795E7959F5FC1F7FE2B880F911DC5
:103390009695879597F908950E94E518880B990BE3
:1033A0000895A1E21A2EAA1BBB1BFD010DC0AA1F86
:1033B000BB1FEE1FFF1FA217B307E407F50720F09E
:1033C000A21BB30BE40BF50B661F771F881F991F19
:1033D0001A9469F760957095809590959B01AC0162
:1033E000BD01CF010895EE0FFF1F0590F491E02D70
:0633F0000994F894FFCFE0
:1033F6001815A015C019FF1815A115C819FF18151D
:10340600AE19FF1815AF19FF1815AE15D51680158C
:10341600A8163F15D316001540158D16141520163F
:103426000015A115C815DA1612158116CF15D9166D
:10343600F115DB1640152E15A415A619FF0001146B
:103446000A6464323200127A0000042896100800DA
:103456000080004000E301E901F201AB01F701FC45
:103466000105020E02000000007105D104FE04BE33
:10347600052F050D052105000000001D0BA70BD02B
:103486000BCF0B6E616E00696E66006F7666005339
:1034960054415254494E47000D0A005265666C6FFE
:1034A60077004F76656E20312E32005443204572E8
:1034B600726F72210043200054696D652053657454
:1034C600706F696E7420496E707574204F757470D4
:1034D6007574005265616479005072652D68656186
:1034E6007400536F616B00436F6F6C00436F6D70B8
:1034F6006C65746500576169742C686F7400457259
:04350600726F72006E
:00000001FF
